:100000000C943A000C944C000C944C000C944C0052
:100010000C9455010C947C010C944C000C94B90088
:100020000C944C000C94E0000C9407010C942E01ED
:100030000C944C000C944C000C944C000C944C0010
:100040000C944C000C944C000C944C000C944C0000
:100050000C944C0033033D034703510365035B03DA
:100060006F0379039E03A803B203BC03D003C60346
:10007000DA03E40311241FBECFE5D8E0DEBFCDBF15
:1000800020E0A0E6B0E001C01D92A636B207E1F77D
:100090000E947D000C9438050C9400000E947000B2
:1000A000089561E081E40E947A0060E070E08AE7F0
:1000B00094E40E94EE0361E082E40E947A0060E032
:1000C00070E08AE794E40E94EE0361E083E40E941A
:1000D0007A0060E070E08AE794E40E94EE030895FD
:1000E000811103C00E9483000895813011F40E94A1
:1000F000990008950E94A900089580E00E944E0092
:100100000E945100FFCF87B3806887BB87B38062AE
:1001100087BB87B3806187BB87B38F7B87BB88B37F
:10012000806188BB8DB180648DB98DB180618DB9DE
:10013000089587B38F7787BB87B38F7D87BB87B3DE
:100140008F7E87BB87B3806487BB8DB180648DB998
:10015000089520E00BC098B39F7E98BB8FB9779B22
:10016000FECF9FB198B3906198BB2F5F261798F38D
:1001700008951F920F920FB60F9211242F933F9361
:100180004F935F936F937F938F939F93AF93BF939F
:10019000EF93FF93E0916200F09163000995FF9166
:1001A000EF91BF91AF919F918F917F916F915F91EF
:1001B0004F913F912F910F900FBE0F901F90189568
:1001C0001F920F920FB60F9211242F933F934F93CC
:1001D0005F936F937F938F939F93AF93BF93EF93AF
:1001E000FF93E0916200F09163000995FF91EF9118
:1001F000BF91AF919F918F917F916F915F914F913F
:100200003F912F910F900FBE0F901F9018951F9246
:100210000F920FB60F9211242F933F934F935F933A
:100220006F937F938F939F93AF93BF93EF93FF93BE
:10023000E0916400F09165000995FF91EF91BF9105
:10024000AF919F918F917F916F915F914F913F916E
:100250002F910F900FBE0F901F9018951F920F9225
:100260000FB60F9211242F933F934F935F936F9389
:100270007F938F939F93AF93BF93EF93FF93E091FF
:100280006400F09165000995FF91EF91BF91AF91E6
:100290009F918F917F916F915F914F913F912F919E
:1002A0000F900FBE0F901F9018951F920F920FB6D0
:1002B0000F9211242F933F934F935F936F937F93EC
:1002C0008F939F93AF93BF93EF93FF93E091600061
:1002D000F09161000995FF91EF91BF91AF919F91CE
:1002E0008F917F916F915F914F913F912F910F90DF
:1002F0000FBE0F901F9018951F920F920FB60F927E
:1003000011242F933F934F935F936F937F938F931A
:100310009F93AF93BF93EF93FF93E0916000F091B1
:1003200061000995FF91EF91BF91AF919F918F91DE
:100330007F916F915F914F913F912F910F900FBEE1
:100340000F901F901895FC0180818111B3C08181AD
:10035000811154C012BE89B7816089BF83B780689C
:1003600083BF8281823011F128F4882359F08130D3
:1003700099F00895863071F18730B1F1853009F038
:100380002CC21EC083B78E7F83BF83B78D7F83BF90
:1003900083B78B7F83BF089583B7816083BF83B7A3
:1003A0008D7F83BF83B78B7F83BF089583B78E7F95
:1003B00083BF83B7826083BF83B78B7F83BF08957A
:1003C00083B7816083BF83B7826083BF83B78B7F2E
:1003D00083BF089583B78E7F83BF83B78D7F83BF2D
:1003E00083B7846083BF089583B7816083BF83B779
:1003F0008D7F83BF83B7846083BF0895813009F008
:10040000ECC112BE89B7826089BF83B7886083BFA1
:1004100083B7806883BF83818CBF8281823011F172
:1004200028F4882359F0813099F00895863071F1CD
:100430008730B1F1853009F0D0C11EC083B78E7FFF
:1004400083BF83B78D7F83BF83B78B7F83BF0895BF
:1004500083B7816083BF83B78D7F83BF83B78B7F73
:1004600083BF089583B78E7F83BF83B7826083BFC6
:1004700083B78B7F83BF089583B7816083BF83B7C2
:10048000826083BF83B78B7F83BF089583B78E7FDE
:1004900083BF83B78D7F83BF83B7846083BF089595
:1004A00083B7816083BF83B78D7F83BF83B7846049
:1004B00083BF0895813009F0BDC08181811158C08A
:1004C0001DBC1CBC89B7846089BF8FB584608FBD9B
:1004D0008FB588608FBD8281823011F128F4882326
:1004E00059F0813099F00895863071F18730B1F17B
:1004F000853009F072C11EC08EB58E7F8EBD8EB55F
:100500008D7F8EBD8EB58B7F8EBD08958EB581603B
:100510008EBD8EB58D7F8EBD8EB58B7F8EBD0895C1
:100520008EB58E7F8EBD8EB582608EBD8EB58B7F73
:100530008EBD08958EB581608EBD8EB582608EBDF4
:100540008EB58B7F8EBD08958EB58E7F8EBD8EB598
:100550008D7F8EBD8EB584608EBD08958EB5816011
:100560008EBD8EB58D7F8EBD8EB584608EBD089597
:10057000813009F032C11DBC1CBC89B7806189BFC4
:100580008FB584608FBD8FB588608FBD84818BBD32
:1005900083818ABD8EB588608EBD8281823011F1E3
:1005A00028F4882359F0813099F00895863071F14C
:1005B0008730B1F1853009F010C11EC08EB58E7F35
:1005C0008EBD8EB58D7F8EBD8EB58B7F8EBD089511
:1005D0008EB581608EBD8EB58D7F8EBD8EB58B7FC5
:1005E0008EBD08958EB58E7F8EBD8EB582608EBD18
:1005F0008EB58B7F8EBD08958EB581608EBD8EB514
:1006000082608EBD8EB58B7F8EBD08958EB58E7F38
:100610008EBD8EB58D7F8EBD8EB584608EBD0895E6
:100620008EB581608EBD8EB58D7F8EBD8EB584609A
:100630008EBD0895823009F0D0C08181811163C0E0
:1006400014BC89B7806489BF85B5806885BDE281A7
:100650008E2F90E08830910508F0BFC0FC01E65D68
:10066000FF4F0C94320583B78E7F83BF83B78D7F96
:1006700083BF83B78B7F83BF089583B7816083BFB8
:1006800083B78D7F83BF83B78B7F83BF089583B785
:100690008E7F83BF83B7826083BF83B78B7F83BF27
:1006A000089583B7816083BF83B7826083BF83B7B8
:1006B0008B7F83BF089583B78E7F83BF83B78D7F82
:1006C00083BF83B7846083BF089583B7816083BF8E
:1006D00083B78D7F83BF83B7846083BF089583B75B
:1006E0008E7F83BF83B7826083BF83B7846083BFFD
:1006F000089583B7816083BF83B7826083BF83B768
:10070000846083BF0895813009F067C014BC89B745
:10071000806889BF85B5886085BD85B5806885BDE1
:10072000838183BDE2818E2F90E08830910508F0AF
:1007300054C0FC01EE5CFF4F0C94320583B78E7FF2
:1007400083BF83B78D7F83BF83B78B7F83BF0895BC
:1007500083B7816083BF83B78D7F83BF83B78B7F70
:1007600083BF089583B78E7F83BF83B7826083BFC3
:1007700083B78B7F83BF089583B7816083BF83B7BF
:10078000826083BF83B78B7F83BF089583B78E7FDB
:1007900083BF83B78D7F83BF83B7846083BF089592
:1007A00083B7816083BF83B78D7F83BF83B7846046
:1007B00083BF089583B78E7F83BF83B7826083BF73
:1007C00083B7846083BF089583B7816083BF83B795
:1007D000826083BF83B7846083BF08958F929F92A6
:1007E000AF92BF92FF920F931F93CF93DF9300D0EE
:1007F00000D01F92CDB7DEB74B015C01CE01019650
:1008000025E0FC0111922A95E9F727E02B830E944D
:10081000A301F12C0BC008B600FE08C0F39488B702
:10082000816088BFCE0101960E94A3010F2D10E0C8
:1008300020E030E04AE754E4C501B4010E944004DE
:100840002DEB37E346E85AE30E94400420E030E015
:100850004FE753E40E9440040E94B20406171707B2
:10086000D1F60F900F900F900F900F90DF91CF91D6
:100870001F910F91FF90BF90AF909F908F90089520
:100880000E9454040C94F8040E94F10458F00E9451
:10089000EA0440F029F45F3F29F00C94E10451117F
:1008A0000C942C050C94E7040E94090568F3992325
:1008B000B1F3552391F3951B550BBB27AA2762175C
:1008C0007307840738F09F5F5F4F220F331F441F69
:1008D000AA1FA9F335D00E2E3AF0E0E832D091509D
:1008E0005040E695001CCAF72BD0FE2F29D0660F8A
:1008F000771F881FBB1F261737074807AB07B0E8CD
:1009000009F0BB0B802DBF01FF2793585F4F3AF0D2
:100910009E3F510578F00C94E1040C942C055F3F48
:10092000E4F3983ED4F3869577956795B795F79558
:100930009F5FC9F7880F911D9695879597F9089540
:10094000E1E0660F771F881FBB1F621773078407DC
:10095000BA0720F0621B730B840BBA0BEE1F88F7EB
:10096000E09508950E94110588F09F5798F0B92FDF
:100970009927B751B0F0E1F0660F771F881F991FD4
:100980001AF0BA95C9F714C0B13091F00E942B0546
:10099000B1E008950C942B05672F782F8827B85F56
:1009A00039F0B93FCCF3869577956795B395D9F72C
:1009B0003EF490958095709561957F4F8F4F9F4F36
:1009C000089597F99F6780E870E060E008959FEFD1
:1009D00080EC089500240A941616170618060906D6
:1009E000089500240A9412161306140605060895A5
:1009F000092E0394000C11F4882352F0BB0F40F42D
:100A0000BF2B11F460FF04C06F5F7F4F8F4F9F4F6C
:100A1000089557FD9058440F551F59F05F3F71F0EE
:100A20004795880F97FB991F61F09F3F79F0879555
:100A30000895121613061406551FF2CF4695F1DFDE
:100A400008C0161617061806991FF1CF869571056E
:100A5000610508940895E894BB2766277727CB01A2
:100A600097F90895EE0FFF1F0590F491E02D09947A
:040A7000F894FFCF28
:00000001FF
