S01200005350495F4452495645522E73726563FB
S11300000C943A000C9457000C9457000C9457002D
S11300100C9497020C94BE020C9457000C94FB01B0
S11300200C9457000C9422020C9449020C94700214
S11300300C9457000C9457000C9457000C945700E0
S11300400C9457000C9457000C9457000C945700D0
S11300500C94570075047F0489049304A7049D0439
S1130060B104BB04E004EA04F404FE041205080528
S11300701C05260511241FBECFE5D8E0DEBFCDBF89
S113008010E0A0E6B0E0E8EFFCE002C005900D92BD
S1130090A036B107D9F720E0A0E6B0E001C01D9278
S11300A0AA36B207E1F70E9413010C947A060C9465
S11300B000000E94060163E072E087E09FEF0E9467
S11300C0A50008950E9410010E94C00060E080E035
S11300D00E94FA000895CF93C82F60E080916600D3
S11300E00E94650161E0809166000E94650160E004
S11300F070E080E89FE30E94300562E08091660032
S11301000E949D0160E070E080E89FE30E9430055A
S11301106FEF809167000E9449016C2F8091670006
S11301200E94310160E070E080E89FE30E943005A6
S113013062E0809166000E94650160E070E080E802
S11301409FE30E943005CF910895CF93262FC92FA6
S11301506093660070936700682F822F0E941901D4
S11301606C2F809167000E94190188E30E946B0044
S11301708CE00E946B0081E00E946B00CF91089597
S1130180CF93C82F60E0809166000E949D0161E0DA
S1130190809166000E94650160E070E080E89FE362
S11301A00E94300562E0809166000E949D0160E03B
S11301B070E080E89FE30E9430056FEF8091670054
S11301C00E9449016C2F809167000E94310160E018
S11301D070E080E89FE30E94300562E08091660051
S11301E00E94650160E070E080E89FE30E943005B2
S11301F0CF910895882329F0813011F060E001C087
S1130200605C862F80680E946B000895811103C092
S11302100E94D1010895813011F40E94E7010895EC
S11302200E94F701089581E00E9459000E94620033
S1130230FDCF813051F028F0823059F0833069F0DD
S113024008958AB3682B6ABB089587B3682B67BB8C
S1130250089584B3682B64BB089581B3682B61BB94
S11302600895813051F028F0823059F0833069F0DC
S113027008958BB3682B6BBB089588B3682B68BB58
S1130280089585B3682B65BB089582B3682B62BB60
S11302900895813059F028F0823069F0833081F07C
S11302A008958BB3609568236BBB089588B36095FC
S11302B0682368BB089585B36095682365BB08957A
S11302C082B36095682362BB0895813091F028F071
S11302D08230D9F0833029F108952BB381E090E086
S11302E002C0880F991F6A95E2F7809582238BBB21
S11302F0089528B381E090E002C0880F991F6A95A1
S1130300E2F78095822388BB089525B381E090E0CD
S113031002C0880F991F6A95E2F78095822385BBF6
S1130320089522B381E090E002C0880F991F6A9576
S1130330E2F78095822382BB0895813089F028F00A
S11303408230C9F0833011F108952BB381E090E03D
S113035002C0880F991F6A95E2F7822B8BBB089520
S113036028B381E090E002C0880F991F6A95E2F7F4
S1130370822B88BB089525B381E090E002C0880FEA
S1130380991F6A95E2F7822B85BB089522B381E019
S113039090E002C0880F991F6A95E2F7822B82BB16
S11303A0089587B3806887BB87B3806287BB87B3B0
S11303B0806187BB87B38F7B87BB88B3806188BB31
S11303C08DB180648DB98DB180618DB9089587B385
S11303D08F7787BB87B38F7D87BB87B38F7E87BBC0
S11303E087B3806487BB8DB180648DB90895779B92
S11303F0FECF8FB108951F920F920FB60F92112462
S11304002F933F934F935F936F937F938F939F9318
S1130410AF93BF93EF93FF93E0916200F091630079
S11304200995FF91EF91BF91AF919F918F917F912A
S11304306F915F914F913F912F910F900FBE0F904D
S11304401F9018951F920F920FB60F9211242F939D
S11304503F934F935F936F937F938F939F93AF9348
S1130460BF93EF93FF93E0916200F09163000995CD
S1130470FF91EF91BF91AF919F918F917F916F9178
S11304805F914F913F912F910F900FBE0F901F904E
S113049018951F920F920FB60F9211242F933F932A
S11304A04F935F936F937F938F939F93AF93BF9378
S11304B0EF93FF93E0916400F09165000995FF913B
S11304C0EF91BF91AF919F918F917F916F915F91C8
S11304D04F913F912F910F900FBE0F901F90189541
S11304E01F920F920FB60F9211242F933F934F93A5
S11304F05F936F937F938F939F93AF93BF93EF9388
S1130500FF93E0916400F09165000995FF91EF91EC
S1130510BF91AF919F918F917F916F915F914F9117
S11305203F912F910F900FBE0F901F9018951F921F
S11305300F920FB60F9211242F933F934F935F9313
S11305406F937F938F939F93AF93BF93EF93FF9397
S1130550E0916000F09161000995FF91EF91BF91E6
S1130560AF919F918F917F916F915F914F913F9147
S11305702F910F900FBE0F901F9018951F920F92FE
S11305800FB60F9211242F933F934F935F936F9362
S11305907F938F939F93AF93BF93EF93FF93E091D8
S11305A06000F09161000995FF91EF91BF91AF91C7
S11305B09F918F917F916F915F914F913F912F9177
S11305C00F900FBE0F901F901895FC018081811130
S11305D0B3C08181811154C012BE89B7816089BFC3
S11305E083B7806883BF8281823011F128F4882325
S11305F059F0813099F00895863071F18730B1F166
S1130600853009F02CC21EC083B78E7F83BF83B7A9
S11306108D7F83BF83B78B7F83BF089583B781604A
S113062083BF83B78D7F83BF83B78B7F83BF0895D9
S113063083B78E7F83BF83B7826083BF83B78B7F8B
S113064083BF089583B7816083BF83B7826083BF0C
S113065083B78B7F83BF089583B78E7F83BF83B7B0
S11306608D7F83BF83B7846083BF089583B7816020
S113067083BF83B78D7F83BF83B7846083BF0895AF
S1130680813009F0ECC112BE89B7826089BF83B79B
S1130690886083BF83B7806883BF83818CBF828176
S11306A0823011F128F4882359F0813099F00895AB
S11306B0863071F18730B1F1853009F0D0C11EC0A8
S11306C083B78E7F83BF83B78D7F83BF83B78B7FD1
S11306D083BF089583B7816083BF83B78D7F83BF52
S11306E083B78B7F83BF089583B78E7F83BF83B720
S11306F0826083BF83B78B7F83BF089583B7816094
S113070083BF83B7826083BF83B78B7F83BF089522
S113071083B78E7F83BF83B78D7F83BF83B78460A6
S113072083BF089583B7816083BF83B78D7F83BF01
S113073083B7846083BF0895813009F0BDC081818F
S1130740811158C01DBC1CBC89B7846089BF8FB59A
S113075084608FBD8FB588608FBD8281823011F136
S113076028F4882359F0813099F00895863071F186
S11307708730B1F1853009F072C11EC08EB58E7F0D
S11307808EBD8EB58D7F8EBD8EB58B7F8EBD08954B
S11307908EB581608EBD8EB58D7F8EBD8EB58B7FFF
S11307A08EBD08958EB58E7F8EBD8EB582608EBD52
S11307B08EB58B7F8EBD08958EB581608EBD8EB54E
S11307C082608EBD8EB58B7F8EBD08958EB58E7F73
S11307D08EBD8EB58D7F8EBD8EB584608EBD089521
S11307E08EB581608EBD8EB58D7F8EBD8EB58460D5
S11307F08EBD0895813009F032C11DBC1CBC89B77F
S1130800806189BF8FB584608FBD8FB588608FBDCF
S113081084818BBD83818ABD8EB588608EBD8281C3
S1130820823011F128F4882359F0813099F0089529
S1130830863071F18730B1F1853009F010C11EC0E6
S11308408EB58E7F8EBD8EB58D7F8EBD8EB58B7F22
S11308508EBD08958EB581608EBD8EB58D7F8EBDA3
S11308608EB58B7F8EBD08958EB58E7F8EBD8EB571
S113087082608EBD8EB58B7F8EBD08958EB58160EE
S11308808EBD8EB582608EBD8EB58B7F8EBD089574
S11308908EB58E7F8EBD8EB58D7F8EBD8EB58460F8
S11308A08EBD08958EB581608EBD8EB58D7F8EBD53
S11308B08EB584608EBD0895823009F0D0C08181E8
S11308C0811163C014BC89B7806489BF85B5806811
S11308D085BDE2818E2F90E08830910508F0BFC07D
S11308E0FC01E65DFF4F0C94740683B78E7F83BFD3
S11308F083B78D7F83BF83B78B7F83BF089583B70F
S1130900816083BF83B78D7F83BF83B78B7F83BFB2
S1130910089583B78E7F83BF83B7826083BF83B715
S11309208B7F83BF089583B7816083BF83B7826061
S113093083BF83B78B7F83BF089583B78E7F83BFC5
S113094083B78D7F83BF83B7846083BF089583B7E4
S1130950816083BF83B78D7F83BF83B7846083BF88
S1130960089583B78E7F83BF83B7826083BF83B7C5
S1130970846083BF089583B7816083BF83B7826037
S113098083BF83B7846083BF0895813009F067C053
S113099014BC89B7806889BF85B5886085BD85B575
S11309A0806885BD838183BDE2818E2F90E088308D
S11309B0910508F054C0FC01EE5CFF4F0C947406E2
S11309C083B78E7F83BF83B78D7F83BF83B78B7FCE
S11309D083BF089583B7816083BF83B78D7F83BF4F
S11309E083B78B7F83BF089583B78E7F83BF83B71D
S11309F0826083BF83B78B7F83BF089583B7816091
S1130A0083BF83B7826083BF83B78B7F83BF08951F
S1130A1083B78E7F83BF83B78D7F83BF83B78460A3
S1130A2083BF089583B7816083BF83B78D7F83BFFE
S1130A3083B7846083BF089583B78E7F83BF83B7F2
S1130A40826083BF83B7846083BF089583B7816066
S1130A5083BF83B7826083BF83B7846083BF0895F5
S1130A608F929F92AF92BF92FF920F931F93CF9357
S1130A70DF9300D000D01F92CDB7DEB74B015C01ED
S1130A80CE01019625E0FC0111922A95E9F727E0B1
S1130A902B830E94E502F12C0BC008B600FE08C0AF
S1130AA0F39488B7816088BFCE0101960E94E50265
S1130AB00F2D10E020E030E04AE754E4C501B40112
S1130AC00E9482052DEB37E346E85AE30E94820533
S1130AD020E030E04FE753E40E9482050E94F405D1
S1130AE006171707D1F60F900F900F900F900F90E5
S1130AF0DF91CF911F910F91FF90BF90AF909F9086
S1130B008F9008950E9496050C943A060E9433062D
S1130B1058F00E942C0640F029F45F3F29F00C9411
S1130B20230651110C946E060C9429060E944B0660
S1130B3068F39923B1F3552391F3951B550BBB2708
S1130B40AA2762177307840738F09F5F5F4F220F4D
S1130B50331F441FAA1FA9F335D00E2E3AF0E0E844
S1130B6032D091505040E695001CCAF72BD0FE2F8E
S1130B7029D0660F771F881FBB1F26173707480722
S1130B80AB07B0E809F0BB0B802DBF01FF279358DA
S1130B905F4F3AF09E3F510578F00C9423060C9475
S1130BA06E065F3FE4F3983ED4F386957795679598
S1130BB0B795F7959F5FC9F7880F911D969587950F
S1130BC097F90895E1E0660F771F881FBB1F62172E
S1130BD073078407BA0720F0621B730B840BBA0BEC
S1130BE0EE1F88F7E09508950E94530688F09F57FA
S1130BF098F0B92F9927B751B0F0E1F0660F771F3D
S1130C00881F991F1AF0BA95C9F714C0B13091F032
S1130C100E946D06B1E008950C946D06672F782F3D
S1130C208827B85F39F0B93FCCF3869577956795F7
S1130C30B395D9F73EF490958095709561957F4F63
S1130C408F4F9F4F089597F99F6780E870E060E0A9
S1130C5008959FEF80EC089500240A941616170651
S1130C6018060906089500240A9412161306140699
S1130C7005060895092E0394000C11F4882352F0FC
S1130C80BB0F40F4BF2B11F460FF04C06F5F7F4FB4
S1130C908F4F9F4F089557FD9058440F551F59F09B
S1130CA05F3F71F04795880F97FB991F61F09F3F55
S1130CB079F087950895121613061406551FF2CF7E
S1130CC04695F1DF08C0161617061806991FF1CFCE
S1130CD086957105610508940895E894BB276627F5
S1130CE07727CB0197F90895EE0FFF1F0590F49134
S10B0CF0E02D0994F894FFCFF4
S9030000FC
